{
  "contractName": "myTokenERC20",
  "abi": [
    {
      "inputs": [
        {
          "internalType": "uint256",
          "name": "initialSupply",
          "type": "uint256"
        },
        {
          "internalType": "uint8",
          "name": "decimal",
          "type": "uint8"
        },
        {
          "internalType": "string",
          "name": "tokenName",
          "type": "string"
        },
        {
          "internalType": "string",
          "name": "tokenSymbol",
          "type": "string"
        }
      ],
      "stateMutability": "nonpayable",
      "type": "constructor"
    },
    {
      "anonymous": false,
      "inputs": [
        {
          "indexed": true,
          "internalType": "address",
          "name": "owner",
          "type": "address"
        },
        {
          "indexed": true,
          "internalType": "address",
          "name": "spender",
          "type": "address"
        },
        {
          "indexed": false,
          "internalType": "uint256",
          "name": "value",
          "type": "uint256"
        }
      ],
      "name": "Approval",
      "type": "event"
    },
    {
      "anonymous": false,
      "inputs": [
        {
          "indexed": true,
          "internalType": "address",
          "name": "from",
          "type": "address"
        },
        {
          "indexed": true,
          "internalType": "address",
          "name": "to",
          "type": "address"
        },
        {
          "indexed": false,
          "internalType": "uint256",
          "name": "value",
          "type": "uint256"
        }
      ],
      "name": "Transfer",
      "type": "event"
    },
    {
      "stateMutability": "payable",
      "type": "receive",
      "payable": true
    },
    {
      "inputs": [],
      "name": "totalSupply",
      "outputs": [
        {
          "internalType": "uint256",
          "name": "",
          "type": "uint256"
        }
      ],
      "stateMutability": "view",
      "type": "function",
      "constant": true
    },
    {
      "inputs": [
        {
          "internalType": "address",
          "name": "tokenOwner",
          "type": "address"
        }
      ],
      "name": "balanceOf",
      "outputs": [
        {
          "internalType": "uint256",
          "name": "",
          "type": "uint256"
        }
      ],
      "stateMutability": "view",
      "type": "function",
      "constant": true
    },
    {
      "inputs": [
        {
          "internalType": "address",
          "name": "receiver",
          "type": "address"
        },
        {
          "internalType": "uint256",
          "name": "numTokens",
          "type": "uint256"
        }
      ],
      "name": "transfer",
      "outputs": [
        {
          "internalType": "bool",
          "name": "",
          "type": "bool"
        }
      ],
      "stateMutability": "nonpayable",
      "type": "function"
    },
    {
      "inputs": [
        {
          "internalType": "address",
          "name": "owner",
          "type": "address"
        },
        {
          "internalType": "address",
          "name": "delegate",
          "type": "address"
        }
      ],
      "name": "allowance",
      "outputs": [
        {
          "internalType": "uint256",
          "name": "",
          "type": "uint256"
        }
      ],
      "stateMutability": "view",
      "type": "function",
      "constant": true
    },
    {
      "inputs": [
        {
          "internalType": "address",
          "name": "delegate",
          "type": "address"
        },
        {
          "internalType": "uint256",
          "name": "numTokens",
          "type": "uint256"
        }
      ],
      "name": "approve",
      "outputs": [
        {
          "internalType": "bool",
          "name": "",
          "type": "bool"
        }
      ],
      "stateMutability": "nonpayable",
      "type": "function"
    },
    {
      "inputs": [
        {
          "internalType": "address",
          "name": "owner",
          "type": "address"
        },
        {
          "internalType": "address",
          "name": "buyer",
          "type": "address"
        },
        {
          "internalType": "uint256",
          "name": "numTokens",
          "type": "uint256"
        }
      ],
      "name": "transferFrom",
      "outputs": [
        {
          "internalType": "bool",
          "name": "",
          "type": "bool"
        }
      ],
      "stateMutability": "nonpayable",
      "type": "function"
    },
    {
      "inputs": [],
      "name": "buyToken",
      "outputs": [
        {
          "internalType": "bool",
          "name": "",
          "type": "bool"
        }
      ],
      "stateMutability": "payable",
      "type": "function",
      "payable": true
    },
    {
      "inputs": [
        {
          "internalType": "uint256",
          "name": "newPrice",
          "type": "uint256"
        }
      ],
      "name": "setPrice",
      "outputs": [
        {
          "internalType": "uint256",
          "name": "rate",
          "type": "uint256"
        }
      ],
      "stateMutability": "nonpayable",
      "type": "function"
    }
  ],
  "bytecode": "0x6080604052670de0b6b3a76400006008553480156200001d57600080fd5b506040516200189e3803806200189e83398181016040528101906200004391906200028f565b82600a620000529190620003ef565b846200005f91906200052c565b60008190555081600390805190602001906200007d9291906200013f565b508060049080519060200190620000969291906200013f565b5033600560006101000a81548173ffffffffffffffffffffffffffffffffffffffff021916908373ffffffffffffffffffffffffffffffffffffffff160217905550600054600660003373ffffffffffffffffffffffffffffffffffffffff1673ffffffffffffffffffffffffffffffffffffffff1681526020019081526020016000208190555060026000546200012f91906200052c565b60018190555050505050620006de565b8280546200014d90620005da565b90600052602060002090601f016020900481019282620001715760008555620001bd565b82601f106200018c57805160ff1916838001178555620001bd565b82800160010185558215620001bd579182015b82811115620001bc5782518255916020019190600101906200019f565b5b509050620001cc9190620001d0565b5090565b5b80821115620001eb576000816000905550600101620001d1565b5090565b600062000206620002008462000361565b6200032d565b9050828152602081018484840111156200021f57600080fd5b6200022c848285620005a4565b509392505050565b600082601f8301126200024657600080fd5b815162000258848260208601620001ef565b91505092915050565b6000815190506200027281620006aa565b92915050565b6000815190506200028981620006c4565b92915050565b60008060008060808587031215620002a657600080fd5b6000620002b68782880162000261565b9450506020620002c98782880162000278565b935050604085015167ffffffffffffffff811115620002e757600080fd5b620002f58782880162000234565b925050606085015167ffffffffffffffff8111156200031357600080fd5b620003218782880162000234565b91505092959194509250565b6000604051905081810181811067ffffffffffffffff821117156200035757620003566200066e565b5b8060405250919050565b600067ffffffffffffffff8211156200037f576200037e6200066e565b5b601f19601f8301169050602081019050919050565b6000808291508390505b6001851115620003e657808604811115620003be57620003bd62000610565b5b6001851615620003ce5780820291505b8081029050620003de856200069d565b94506200039e565b94509492505050565b6000620003fc826200058d565b9150620004098362000597565b9250620004387fffffffffffffffffffffffffffffffffffffffffffffffffffffffffffffffff848462000440565b905092915050565b60008262000452576001905062000525565b8162000462576000905062000525565b81600181146200047b57600281146200048657620004bc565b600191505062000525565b60ff8411156200049b576200049a62000610565b5b8360020a915084821115620004b557620004b462000610565b5b5062000525565b5060208310610133831016604e8410600b8410161715620004f65782820a905083811115620004f057620004ef62000610565b5b62000525565b62000505848484600162000394565b925090508184048111156200051f576200051e62000610565b5b81810290505b9392505050565b600062000539826200058d565b915062000546836200058d565b9250817fffffffffffffffffffffffffffffffffffffffffffffffffffffffffffffffff048311821515161562000582576200058162000610565b5b828202905092915050565b6000819050919050565b600060ff82169050919050565b60005b83811015620005c4578082015181840152602081019050620005a7565b83811115620005d4576000848401525b50505050565b60006002820490506001821680620005f357607f821691505b602082108114156200060a57620006096200063f565b5b50919050565b7f4e487b7100000000000000000000000000000000000000000000000000000000600052601160045260246000fd5b7f4e487b7100000000000000000000000000000000000000000000000000000000600052602260045260246000fd5b7f4e487b7100000000000000000000000000000000000000000000000000000000600052604160045260246000fd5b60008160011c9050919050565b620006b5816200058d565b8114620006c157600080fd5b50565b620006cf8162000597565b8114620006db57600080fd5b50565b6111b080620006ee6000396000f3fe60806040526004361061007f5760003560e01c806391b7f5ed1161004e57806391b7f5ed14610176578063a4821719146101b3578063a9059cbb146101d1578063dd62ed3e1461020e5761008f565b8063095ea7b31461009457806318160ddd146100d157806323b872dd146100fc57806370a08231146101395761008f565b3661008f5761008c61024b565b50005b600080fd5b3480156100a057600080fd5b506100bb60048036038101906100b69190610d2f565b6103c6565b6040516100c89190610f24565b60405180910390f35b3480156100dd57600080fd5b506100e66104b8565b6040516100f39190610fbf565b60405180910390f35b34801561010857600080fd5b50610123600480360381019061011e9190610ce0565b6104c1565b6040516101309190610f24565b60405180910390f35b34801561014557600080fd5b50610160600480360381019061015b9190610c7b565b610908565b60405161016d9190610fbf565b60405180910390f35b34801561018257600080fd5b5061019d60048036038101906101989190610d6b565b610951565b6040516101aa9190610fbf565b60405180910390f35b6101bb61024b565b6040516101c89190610f24565b60405180910390f35b3480156101dd57600080fd5b506101f860048036038101906101f39190610d2f565b6109bb565b6040516102059190610f24565b60405180910390f35b34801561021a57600080fd5b5061023560048036038101906102309190610ca4565b610bca565b6040516102429190610fbf565b60405180910390f35b6000806008543461025c9190611041565b90508060066000600560009054906101000a900473ffffffffffffffffffffffffffffffffffffffff1673ffffffffffffffffffffffffffffffffffffffff1673ffffffffffffffffffffffffffffffffffffffff168152602001908152602001600020546102cb9190611072565b60066000600560009054906101000a900473ffffffffffffffffffffffffffffffffffffffff1673ffffffffffffffffffffffffffffffffffffffff1673ffffffffffffffffffffffffffffffffffffffff1681526020019081526020016000208190555080600660003373ffffffffffffffffffffffffffffffffffffffff1673ffffffffffffffffffffffffffffffffffffffff1681526020019081526020016000205461037b9190610feb565b600660003373ffffffffffffffffffffffffffffffffffffffff1673ffffffffffffffffffffffffffffffffffffffff16815260200190815260200160002081905550600191505090565b600081600760003373ffffffffffffffffffffffffffffffffffffffff1673ffffffffffffffffffffffffffffffffffffffff16815260200190815260200160002060008573ffffffffffffffffffffffffffffffffffffffff1673ffffffffffffffffffffffffffffffffffffffff168152602001908152602001600020819055508273ffffffffffffffffffffffffffffffffffffffff163373ffffffffffffffffffffffffffffffffffffffff167f8c5be1e5ebec7d5bd14f71427d1e84f3dd0314c0f7b2291e5b200ac8c7c3b925846040516104a69190610fbf565b60405180910390a36001905092915050565b60008054905090565b6000600660008573ffffffffffffffffffffffffffffffffffffffff1673ffffffffffffffffffffffffffffffffffffffff16815260200190815260200160002054821115610545576040517f08c379a000000000000000000000000000000000000000000000000000000000815260040161053c90610f7f565b60405180910390fd5b600760008573ffffffffffffffffffffffffffffffffffffffff1673ffffffffffffffffffffffffffffffffffffffff16815260200190815260200160002060003373ffffffffffffffffffffffffffffffffffffffff1673ffffffffffffffffffffffffffffffffffffffff16815260200190815260200160002054821115610604576040517f08c379a00000000000000000000000000000000000000000000000000000000081526004016105fb90610f3f565b60405180910390fd5b600073ffffffffffffffffffffffffffffffffffffffff168373ffffffffffffffffffffffffffffffffffffffff161415610674576040517f08c379a000000000000000000000000000000000000000000000000000000000815260040161066b90610f5f565b60405180910390fd5b81600660008673ffffffffffffffffffffffffffffffffffffffff1673ffffffffffffffffffffffffffffffffffffffff168152602001908152602001600020546106bf9190611072565b600660008673ffffffffffffffffffffffffffffffffffffffff1673ffffffffffffffffffffffffffffffffffffffff1681526020019081526020016000208190555081600760008673ffffffffffffffffffffffffffffffffffffffff1673ffffffffffffffffffffffffffffffffffffffff16815260200190815260200160002060003373ffffffffffffffffffffffffffffffffffffffff1673ffffffffffffffffffffffffffffffffffffffff1681526020019081526020016000205461078a9190611072565b600760008673ffffffffffffffffffffffffffffffffffffffff1673ffffffffffffffffffffffffffffffffffffffff16815260200190815260200160002060003373ffffffffffffffffffffffffffffffffffffffff1673ffffffffffffffffffffffffffffffffffffffff1681526020019081526020016000208190555081600660008573ffffffffffffffffffffffffffffffffffffffff1673ffffffffffffffffffffffffffffffffffffffff168152602001908152602001600020546108559190610feb565b600660008573ffffffffffffffffffffffffffffffffffffffff1673ffffffffffffffffffffffffffffffffffffffff168152602001908152602001600020819055508273ffffffffffffffffffffffffffffffffffffffff168473ffffffffffffffffffffffffffffffffffffffff167fddf252ad1be2c89b69c2b068fc378daa952ba7f163c4a11628f55a4df523b3ef846040516108f59190610fbf565b60405180910390a3600190509392505050565b6000600660008373ffffffffffffffffffffffffffffffffffffffff1673ffffffffffffffffffffffffffffffffffffffff168152602001908152602001600020549050919050565b6000600560009054906101000a900473ffffffffffffffffffffffffffffffffffffffff1673ffffffffffffffffffffffffffffffffffffffff163373ffffffffffffffffffffffffffffffffffffffff1614156109b6578160088190555060085490505b919050565b6000600660003373ffffffffffffffffffffffffffffffffffffffff1673ffffffffffffffffffffffffffffffffffffffff16815260200190815260200160002054821115610a3f576040517f08c379a0000000000000000000000000000000000000000000000000000000008152600401610a3690610f9f565b60405180910390fd5b81600660003373ffffffffffffffffffffffffffffffffffffffff1673ffffffffffffffffffffffffffffffffffffffff16815260200190815260200160002054610a8a9190611072565b600660003373ffffffffffffffffffffffffffffffffffffffff1673ffffffffffffffffffffffffffffffffffffffff1681526020019081526020016000208190555081600660008573ffffffffffffffffffffffffffffffffffffffff1673ffffffffffffffffffffffffffffffffffffffff16815260200190815260200160002054610b189190610feb565b600660008573ffffffffffffffffffffffffffffffffffffffff1673ffffffffffffffffffffffffffffffffffffffff168152602001908152602001600020819055508273ffffffffffffffffffffffffffffffffffffffff163373ffffffffffffffffffffffffffffffffffffffff167fddf252ad1be2c89b69c2b068fc378daa952ba7f163c4a11628f55a4df523b3ef84604051610bb89190610fbf565b60405180910390a36001905092915050565b6000600760008473ffffffffffffffffffffffffffffffffffffffff1673ffffffffffffffffffffffffffffffffffffffff16815260200190815260200160002060008373ffffffffffffffffffffffffffffffffffffffff1673ffffffffffffffffffffffffffffffffffffffff16815260200190815260200160002054905092915050565b600081359050610c608161114c565b92915050565b600081359050610c7581611163565b92915050565b600060208284031215610c8d57600080fd5b6000610c9b84828501610c51565b91505092915050565b60008060408385031215610cb757600080fd5b6000610cc585828601610c51565b9250506020610cd685828601610c51565b9150509250929050565b600080600060608486031215610cf557600080fd5b6000610d0386828701610c51565b9350506020610d1486828701610c51565b9250506040610d2586828701610c66565b9150509250925092565b60008060408385031215610d4257600080fd5b6000610d5085828601610c51565b9250506020610d6185828601610c66565b9150509250929050565b600060208284031215610d7d57600080fd5b6000610d8b84828501610c66565b91505092915050565b610d9d816110b8565b82525050565b6000610db0602e83610fda565b91507f416c6c6f77616e636520666f722064656c6567617465206f776e65722069732060008301527f6e6f742073756666696369656e740000000000000000000000000000000000006020830152604082019050919050565b6000610e16602283610fda565b91507f6163636f756e742073686f756c64206e6f74206265207a656f7220616464726560008301527f73730000000000000000000000000000000000000000000000000000000000006020830152604082019050919050565b6000610e7c601d83610fda565b91507f696e73756666696369656e742062616c616e6365206f66206f776e65720000006000830152602082019050919050565b6000610ebc602883610fda565b91507f796f7520646f6e2774206861766520656e6f75676820746f6b656e7320746f2060008301527f7472616e736665720000000000000000000000000000000000000000000000006020830152604082019050919050565b610f1e816110e4565b82525050565b6000602082019050610f396000830184610d94565b92915050565b60006020820190508181036000830152610f5881610da3565b9050919050565b60006020820190508181036000830152610f7881610e09565b9050919050565b60006020820190508181036000830152610f9881610e6f565b9050919050565b60006020820190508181036000830152610fb881610eaf565b9050919050565b6000602082019050610fd46000830184610f15565b92915050565b600082825260208201905092915050565b6000610ff6826110e4565b9150611001836110e4565b9250827fffffffffffffffffffffffffffffffffffffffffffffffffffffffffffffffff03821115611036576110356110ee565b5b828201905092915050565b600061104c826110e4565b9150611057836110e4565b9250826110675761106661111d565b5b828204905092915050565b600061107d826110e4565b9150611088836110e4565b92508282101561109b5761109a6110ee565b5b828203905092915050565b60006110b1826110c4565b9050919050565b60008115159050919050565b600073ffffffffffffffffffffffffffffffffffffffff82169050919050565b6000819050919050565b7f4e487b7100000000000000000000000000000000000000000000000000000000600052601160045260246000fd5b7f4e487b7100000000000000000000000000000000000000000000000000000000600052601260045260246000fd5b611155816110a6565b811461116057600080fd5b50565b61116c816110e4565b811461117757600080fd5b5056fea2646970667358221220505c55f5115993b373b8ae5dc88e2c311ffd3f62a37efa209fc304b3dcc2b48a64736f6c63430008000033",
  "immutableReferences": {},
  "source": "// SPDX-License-Identifier: MIT\n\npragma solidity ^0.8.0;\n\ninterface IERC20\n{\n    function totalSupply() external view returns (uint256);\n    function balanceOf(address account) external view returns (uint256);\n    function transfer(address recipient, uint256 amount) external returns (bool);\n    function allowance(address owner, address spender) external view returns (uint256);\n    function approve(address spender, uint256 amount) external returns (bool);\n    function transferFrom(address sender,address recipient,uint256 amount) external returns (bool);\n    event Transfer(address indexed from, address indexed to, uint256 value);\n    event Approval(address indexed owner, address indexed spender, uint256 value);\n}\n\ncontract myTokenERC20 is IERC20\n{\n    uint _totalSupply;\n    uint _tokenCap;\n    uint8 _decimal;\n    string _tokenName;\n    string _tokenSymbol;\n    address _contractOwner;\n    mapping (address => uint) _balances; \n    mapping (address => mapping(address => uint256)) _allowances;\n    \n    \n    constructor(uint256 initialSupply,uint8 decimal, string memory tokenName, string memory tokenSymbol)  \n    {\n   _totalSupply = initialSupply*10**decimal;\n   _tokenName = tokenName;\n   _tokenSymbol = tokenSymbol;\n   _contractOwner=msg.sender;\n   _balances[msg.sender] = _totalSupply;\n    _tokenCap=_totalSupply*2;\n    \n     }\n     \n    // modifier to check whether given address is _contractOwner or not?\n     modifier isOwner {\n        if(msg.sender == _contractOwner) {\n        _;\n        }\n    }\n    \n    function totalSupply() override external view returns (uint)\n    {\n        return _totalSupply;\n    }\n    \n    function balanceOf(address tokenOwner) override external view returns (uint) {\n    return _balances[tokenOwner];\n     }\n     \n     function transfer(address receiver,uint numTokens) override external returns(bool)\n      {\n      require(numTokens <= _balances[msg.sender],\"you don't have enough tokens to transfer\");\n     _balances[msg.sender] = _balances[msg.sender] - numTokens; // 100 -12 =88\n     _balances[receiver] = _balances[receiver] + numTokens;   //0 + 12= 12\n      emit Transfer(msg.sender, receiver, numTokens);\n       return true;\n      }\n      \n      function allowance(address owner,address delegate) override public view returns (uint) {\n       return _allowances[owner][delegate];\n        }\n      \n      function approve(address delegate,uint numTokens) override external returns (bool) {\n     _allowances[msg.sender][delegate] = numTokens;\n     emit Approval(msg.sender, delegate, numTokens);\n      return true;\n       }\n       \n       function transferFrom(address owner, address buyer,uint numTokens) override public returns (bool) {\n       require(numTokens <= _balances[owner],\"insufficient balance of owner\");\n       require(numTokens <= _allowances[owner][msg.sender],\"Allowance for delegate owner is not sufficient\"); \n       require(buyer != address(0),\"account should not be zeor address\");\n       _balances[owner] = _balances[owner] - numTokens;\n       _allowances[owner][msg.sender] = _allowances[owner][msg.sender] - numTokens;\n       _balances[buyer] = _balances[buyer] + numTokens;\n       emit Transfer(owner, buyer, numTokens);\n       return true;\n       }\n      \n     // 3A     1) anyone can get the token by paying against ether\n     \n     //  purchasing from owner    \n    uint tokenRate=1 ether;\n    function buyToken() public payable returns (bool) {\n    uint tokenQuantity=msg.value/tokenRate;   // 8 ether  8/1 ->8 tokens\n     _balances[_contractOwner]=_balances[_contractOwner]-tokenQuantity;   // 100 -8\n     _balances[msg.sender]=_balances[msg.sender]+tokenQuantity;  //0+8=8\n      return true;\n        }\n        \n        // 3A 2) \n        \n         receive() payable external\n    {\n        buyToken();\n    }\n     \n    // 3A   3. There should be an additional method to adjust the price that allows the owner to adjust the price.\n    function setPrice(uint newPrice) public isOwner returns(uint rate){\n          tokenRate = newPrice;\n          return tokenRate;\n      }\n     \n     \n     \n    \n}",
  "sourcePath": "D:\\3A\\contracts\\myTokenERC20.sol",
  "compiler": {
    "name": "solc",
    "version": "0.8.0+commit.c7dfd78e.Emscripten.clang"
  },
  "schemaVersion": "3.4.3",
  "updatedAt": "2021-09-14T18:57:51.980Z",
  "networkType": "ethereum",
  "devdoc": {
    "kind": "dev",
    "methods": {},
    "version": 1
  },
  "userdoc": {
    "kind": "user",
    "methods": {},
    "version": 1
  }
}